BL51 BANKED LINKER/LOCATER V6.22.2.0                                                    02/10/2023  15:34:26  PAGE 1


BL51 BANKED LINKER/LOCATER V6.22.2.0, INVOKED BY:
D:\PROGRAM FILES\KEIL_V5\C51\BIN\BL51.EXE .\Objects\asm.obj TO .\Objects\asm PRINT (.\Listings\asm.m51) RAMSIZE (256)


INPUT MODULES INCLUDED:
  .\Objects\asm.obj (ASM)


LINK MAP OF MODULE:  .\Objects\asm (ASM)


            TYPE    BASE      LENGTH    RELOCATION   SEGMENT NAME
            -----------------------------------------------------

            * * * * * * *   D A T A   M E M O R Y   * * * * * * *
            REG     0000H     0008H     ABSOLUTE     "REG BANK 0"

            * * * * * * *   C O D E   M E M O R Y   * * * * * * *
            CODE    0000H     0019H     ABSOLUTE     



SYMBOL TABLE OF MODULE:  .\Objects\asm (ASM)

  VALUE           TYPE          NAME
  ----------------------------------

  -------         MODULE        ASM
  C:0016H         SYMBOL        DELAY
  C:0003H         SYMBOL        MAIN_LOOP
  C:0000H         LINE#         4
  C:0003H         LINE#         7
  C:0005H         LINE#         8
  C:0006H         LINE#         9
  C:0007H         LINE#         10
  C:000AH         LINE#         12
  C:000BH         LINE#         13
  C:000CH         LINE#         14
  C:000DH         LINE#         15
  C:000EH         LINE#         16
  C:000FH         LINE#         17
  C:0011H         LINE#         18
  C:0013H         LINE#         19
  C:0016H         LINE#         22
  C:0017H         LINE#         23
  C:0018H         LINE#         24
  -------         ENDMOD        ASM

Program Size: data=8.0 xdata=0 code=25
LINK/LOCATE RUN COMPLETE.  0 WARNING(S),  0 ERROR(S)
