A51 MACRO ASSEMBLER  ASM                                                                  02/10/2023 15:34:26 PAGE     1


MACRO ASSEMBLER A51 V8.2.7.0
OBJECT MODULE PLACED IN .\Objects\asm.obj
ASSEMBLER INVOKED BY: D:\Program Files\Keil_v5\C51\BIN\A51.EXE asm.a51 SET(SMALL) DEBUG PRINT(.\Listings\asm.lst) OBJECT
                      (.\Objects\asm.obj) EP

LOC  OBJ            LINE     SOURCE

                       1     
                       2     
0000                   3             ORG 0000H
0000 020003            4                     LJMP MAIN_LOOP
                       5             
0003                   6             MAIN_LOOP:
0003 2401              7                     ADD  A, #0x01
0005 00                8                     NOP
0006 00                9                     NOP
0007 020003           10                     LJMP MAIN_LOOP
                      11                     
000A 00               12                     NOP
000B 00               13                     NOP
000C 08               14                     INC  R0
000D 09               15                     INC  R1
000E 04               16                     INC  A
000F 1520             17                     DEC 20H
0011 1116             18                     ACALL DELAY
0013 020003           19                     LJMP MAIN_LOOP
                      20                     
0016                  21             DELAY:
0016 00               22                     NOP
0017 00               23                     NOP
0018 22               24                     RET
                      25     
                      26     
                      27     END
A51 MACRO ASSEMBLER  ASM                                                                  02/10/2023 15:34:26 PAGE     2

SYMBOL TABLE LISTING
------ ----- -------


N A M E             T Y P E  V A L U E   ATTRIBUTES

DELAY. . . . . . .  C ADDR   0016H   A   
MAIN_LOOP. . . . .  C ADDR   0003H   A   


REGISTER BANK(S) USED: 0 


ASSEMBLY COMPLETE.  0 WARNING(S), 0 ERROR(S)
